{
  "contractName": "Vote",
  "abi": [
    {
      "inputs": [],
      "payable": false,
      "stateMutability": "nonpayable",
      "type": "constructor"
    },
    {
      "constant": true,
      "inputs": [],
      "name": "votes",
      "outputs": [
        {
          "internalType": "uint256",
          "name": "",
          "type": "uint256"
        }
      ],
      "payable": false,
      "stateMutability": "view",
      "type": "function"
    },
    {
      "constant": false,
      "inputs": [
        {
          "internalType": "string",
          "name": "_name",
          "type": "string"
        }
      ],
      "name": "vote",
      "outputs": [],
      "payable": false,
      "stateMutability": "nonpayable",
      "type": "function"
    },
    {
      "constant": true,
      "inputs": [
        {
          "internalType": "address",
          "name": "_search",
          "type": "address"
        }
      ],
      "name": "nameFromAddress",
      "outputs": [
        {
          "internalType": "string",
          "name": "",
          "type": "string"
        }
      ],
      "payable": false,
      "stateMutability": "view",
      "type": "function"
    },
    {
      "constant": true,
      "inputs": [],
      "name": "addressList",
      "outputs": [
        {
          "internalType": "address[]",
          "name": "",
          "type": "address[]"
        }
      ],
      "payable": false,
      "stateMutability": "view",
      "type": "function"
    },
    {
      "constant": false,
      "inputs": [],
      "name": "kill",
      "outputs": [],
      "payable": false,
      "stateMutability": "nonpayable",
      "type": "function"
    }
  ],
  "bytecode": "0x608060405234801561001057600080fd5b5033600160006101000a81548173ffffffffffffffffffffffffffffffffffffffff021916908373ffffffffffffffffffffffffffffffffffffffff16021790555061074c806100616000396000f3fe608060405234801561001057600080fd5b50600436106100575760003560e01c806341c0e1b51461005c578063b150569214610066578063c1eb6dfd14610123578063e168c3ec14610182578063fc36e15b146101a0575b600080fd5b610064610219565b005b6100a86004803603602081101561007c57600080fd5b81019080803573ffffffffffffffffffffffffffffffffffffffff16906020019092919050505061031b565b6040518080602001828103825283818151815260200191508051906020019080838360005b838110156100e85780820151818401526020810190506100cd565b50505050905090810190601f1680156101155780820380516001836020036101000a031916815260200191505b509250505060405180910390f35b61012b6103fc565b6040518080602001828103825283818151815260200191508051906020019060200280838360005b8381101561016e578082015181840152602081019050610153565b505050509050019250505060405180910390f35b61018a61048a565b6040518082815260200191505060405180910390f35b610217600480360360208110156101b657600080fd5b81019080803590602001906401000000008111156101d357600080fd5b8201836020820111156101e557600080fd5b8035906020019184600183028401116401000000008311171561020757600080fd5b9091929391929390505050610490565b005b600160009054906101000a900473ffffffffffffffffffffffffffffffffffffffff1673ffffffffffffffffffffffffffffffffffffffff163373ffffffffffffffffffffffffffffffffffffffff16146102dc576040517f08c379a000000000000000000000000000000000000000000000000000000000815260040180806020018281038252600d8152602001807f6d757374206265206f776e65720000000000000000000000000000000000000081525060200191505060405180910390fd5b600160009054906101000a900473ffffffffffffffffffffffffffffffffffffffff1661ffff1673ffffffffffffffffffffffffffffffffffffffff16ff5b6060600360008373ffffffffffffffffffffffffffffffffffffffff1673ffffffffffffffffffffffffffffffffffffffff1681526020019081526020016000208054600181600116156101000203166002900480601f0160208091040260200160405190810160405280929190818152602001828054600181600116156101000203166002900480156103f05780601f106103c5576101008083540402835291602001916103f0565b820191906000526020600020905b8154815290600101906020018083116103d357829003601f168201915b50505050509050919050565b6060600480548060200260200160405190810160405280929190818152602001828054801561048057602002820191906000526020600020905b8160009054906101000a900473ffffffffffffffffffffffffffffffffffffffff1673ffffffffffffffffffffffffffffffffffffffff1681526020019060010190808311610436575b5050505050905090565b60005481565b600260003373ffffffffffffffffffffffffffffffffffffffff1673ffffffffffffffffffffffffffffffffffffffff16815260200190815260200160002060009054906101000a900460ff1615610550576040517f08c379a00000000000000000000000000000000000000000000000000000000081526004018080602001828103825260168152602001807f796f75206861766520616c726561647920766f7465640000000000000000000081525060200191505060405180910390fd5b6001600260003373ffffffffffffffffffffffffffffffffffffffff1673ffffffffffffffffffffffffffffffffffffffff16815260200190815260200160002060006101000a81548160ff0219169083151502179055508181600360003373ffffffffffffffffffffffffffffffffffffffff1673ffffffffffffffffffffffffffffffffffffffff16815260200190815260200160002091906105f6929190610672565b5060043390806001815401808255809150509060018203906000526020600020016000909192909190916101000a81548173ffffffffffffffffffffffffffffffffffffffff021916908373ffffffffffffffffffffffffffffffffffffffff1602179055505060008081548092919060010191905055505050565b828054600181600116156101000203166002900490600052602060002090601f016020900481019282601f106106b357803560ff19168380011785556106e1565b828001600101855582156106e1579182015b828111156106e05782358255916020019190600101906106c5565b5b5090506106ee91906106f2565b5090565b61071491905b808211156107105760008160009055506001016106f8565b5090565b9056fea265627a7a723158206916f43afe1eb62e67478571fe59801e8cfacda5bd63816cf45eea03344b774064736f6c63430005100032",
  "source": "pragma solidity >0.4.21 <=0.7.0;\r\n\r\n\r\ncontract Vote {\r\n    uint256 public votes;\r\n    address owner;\r\n    mapping(address => bool) hasVoted;\r\n    mapping(address => string) addressToName;\r\n    address[] votedAddresses;\r\n\r\n    constructor() public {\r\n        owner = msg.sender;\r\n    }\r\n\r\n    modifier onlyOwner {\r\n        require(msg.sender == owner, \"must be owner\");\r\n        _;\r\n    }\r\n    modifier votedYet() {\r\n        require(!hasVoted[msg.sender], \"you have already voted\");\r\n        _;\r\n    }\r\n\r\n    function vote(string calldata _name) external votedYet {\r\n        hasVoted[msg.sender] = true;\r\n        addressToName[msg.sender] = _name;\r\n        votedAddresses.push(msg.sender);\r\n        votes++;\r\n    }\r\n\r\n    function nameFromAddress(address _search)\r\n        external\r\n        view\r\n        returns (string memory)\r\n    {\r\n        return addressToName[_search];\r\n    }\r\n\r\n    function addressList() external view returns (address[] memory) {\r\n        return votedAddresses;\r\n    }\r\n\r\n    function kill() public onlyOwner {\r\n        selfdestruct(address(uint16(owner)));\r\n    }\r\n}\r\n",
  "sourcePath": "D:\\tuition\\vote-contract\\contracts\\Vote.sol",
  "compiler": {
    "name": "solc",
    "version": "0.5.16+commit.9c3226ce.Emscripten.clang"
  },
  "schemaVersion": "3.0.23",
  "updatedAt": "2020-04-20T13:52:11.923Z",
  "networkType": "ethereum",
  "devdoc": {
    "methods": {}
  },
  "userdoc": {
    "methods": {}
  }
}